:020000040800F2
:10000000002000209D0B00085D0800085F08000824
:1000100000000000000000000000000000000000E0
:10002000000000000000000000000000610800085F
:1000300000000000000000006308000865080008D8
:10004000ED0B0008ED0B000867080008ED0B000839
:10005000ED0B0008ED0B0008ED0B0008ED0B0008A0
:1000600000000000ED0B0008ED0B0008ED0B000890
:10007000ED0B00086908000800000000ED0B000807
:1000800000000000ED0B0008000000000000000070
:10009000ED0B000800000000ED0B0008ED0B000860
:1000A000ED0B0008ED0B0008ED0B0008ED0B000850
:1000B000ED0B0008ED0B0008000000000000000040
:1000C00010B5064C2378002B07D1054B002B02D02E
:1000D000044800E000BF0123237010BD040000208D
:1000E00000000000480C0008044B10B5002B03D0A2
:1000F0000349044800E000BF10BDC04600000000F6
:1001000008000020480C0008002243088B4274D3EA
:1001100003098B425FD3030A8B4244D3030B8B4208
:1001200028D3030C8B420DD3FF22090212BA030C11
:100130008B4202D31212090265D0030B8B4219D3F2
:1001400000E0090AC30B8B4201D3CB03C01A524112
:10015000830B8B4201D38B03C01A5241430B8B425A
:1001600001D34B03C01A5241030B8B4201D30B0343
:10017000C01A5241C30A8B4201D3CB02C01A52416A
:10018000830A8B4201D38B02C01A5241430A8B422D
:1001900001D34B02C01A5241030A8B4201D30B0216
:1001A000C01A5241CDD2C3098B4201D3CB01C01A30
:1001B000524183098B4201D38B01C01A524143093A
:1001C0008B4201D34B01C01A524103098B4201D328
:1001D0000B01C01A5241C3088B4201D3CB00C01A95
:1001E000524183088B4201D38B00C01A524143080D
:1001F0008B4201D34B00C01A5241411A00D2014632
:10020000524110467047FFE701B5002000F006F8A4
:1002100002BDC0460029F7D076E770477047C04658
:1002200082B00F4A116B8020400101431163136BB0
:1002300003400193019B0B4B9A6860218A439A60AB
:100240009A6820318A439A60074A5A619A686839E5
:100250008A439A60012252421A6102B07047C04636
:100260000010024000300240B71DC10482B0184B9C
:10027000996B802212060A439A639B6BDB0FDB07A4
:100280000193019B134BC32189005A581248024025
:100290005A50802292011A60104BDA6801218A4379
:1002A000DA60DA680E490A40DA60DA680D490A4015
:1002B000DA60DA680C490A40DA60DA680B490A4009
:1002C000DA60DA680A490A40DA6002B07047C0466C
:1002D0000010024000E100E0FF00FFFF007C004052
:1002E000FFF1FFFFFFFFDFFFFFFFBFFFFFFF7FFF0C
:1002F000FFFFF9FFF0B5DE4657464E464546E0B5EE
:100300008DB00AAF082608220021380000F094FCC6
:100310001822002104A800F08FFC4F4BD96A042258
:100320001143D962D96A0A400392039ADA6A012416
:100330002243DA62DA6A22400292029ADA6A0221DF
:1003400089460A43DA62DB6A0B400193019BA025D0
:10035000ED05AE6110239B46AB6130339A46AB612D
:100360003E4B984652469A611A008023936180233F
:10037000DB000493059404A9280000F076FA0496A3
:100380000594002606960796089604A9280000F012
:100390006CFA5A460492059406960796089604A9A4
:1003A000280000F062FA52460492059406960796D9
:1003B000089604A9280000F058FA049405960896B7
:1003C00004A9404600F051FA52460492059406945E
:1003D0000794089404A9404600F047FA8023049348
:1003E000059406940794089404A9404600F03DFA49
:1003F0001B4B1A690F218A431A611A69E1318A433A
:100400001A61EB68174A94461340EB60E968164896
:100410000140E9602A6863461A402A602B6803405D
:100420002B6080235B000A933C717E714B46BB714D
:10043000380000F0BBFA80239B000A933C717E7168
:100440004B46BB71380000F0B1FA0DB0F0BCBB46B2
:10045000B246A946A046F0BD00100240000400507C
:1004600000000140FFFFFCFFFFFFF3FF70B592B0FB
:10047000142200210DA800F0DFFB1022002109A8A2
:1004800000F0DAFB1822002103A800F0D5FB314B65
:10049000596B80208000014359635A6B02400292DD
:1004A000029ADA6A01263243DA62DB6A3340019348
:1004B000019B0396032304936138FF3803A9C00509
:1004C00000F0D3F9244CA36A3343A36200250D95B1
:1004D0000E950F95109511950DA9200000F038FA92
:1004E00063690722934363612369B3432361E3682C
:1004F000033A9343E36019490B68194803400B60C2
:100500006368934363606368043293436360C0230A
:100510001B0609930A950B950C9509A9200000F07C
:10052000FDF9A3680F4A1A4080235B051343A360BB
:100530000D4B18680D49FFF7E7FD03008000C01858
:1005400040000A21FFF7E0FD00E001380028FCD15F
:1005500012B070BD00100240002401400827014085
:10056000FFFFFFFDE8FFFF6F00000020400D0300CC
:1005700030B585B00C22002101A800F05DFB104AC7
:10058000116D8023DB020B4313650E4BC0218900E4
:100590005A580D4802405A5004251D60002301930B
:1005A0007F33029380330393084C01A9200000F0AD
:1005B00093FAA368072293432B43A36005B030BD91
:1005C0000010024000E100E0FFFF00FF00280040B3
:1005D00070B592B02822002108A800F02DFB182247
:1005E000002102A800F028FB214B596B802040011C
:1005F000014359635A6B02400192019AD96A012260
:100600001143D962DB6A1A400092009B20230293B7
:100610000226039603240494A025ED0502A92800D0
:1006200000F023F980230293039604940024059498
:100630000694079402A9280000F017F90894822371
:100640005B0009930A940B940C94FC330D930E9465
:100650000F941094FA3BFF3B1193064C08A920001D
:1006600000F062FA636810229343636012B070BDB9
:10067000001002400030014010B5544A13680121B7
:100680008B431360514B1B68DB07FBD450490B684D
:10069000504A1A4080231B0113430B604C4B5B688C
:1006A000DB06FBD44C4B1A6808210A431A601A680F
:1006B00007390A431A60484B1B685B07FBD5464B5A
:1006C0005A6846491140802252010A435A601A6D05
:1006D00001210A431A65404B1B6D9B07FBD53C4A21
:1006E000116880235B000B4313603B4B1B6DC022E2
:1006F0009202134080225202934209D0364B196D68
:10070000802212030A431A651A6D35490A401A6598
:10071000314B1A6D2F490A401A65196D802252001B
:100720000A431A652C4B1B6D9B05FBD52A4B1B6D91
:10073000C0229202134080225202934207D02649DF
:100740000B6D284A1A4080235B0213430B65224B32
:10075000196D8022D2020A431A65DA6822491140D3
:100760008822D2030A43DA601968802252040A43BD
:100770001A60194B1B689B01FBD5174BDA68F021F7
:100780008A43DA60DA6819490A40DA60DA68184997
:100790000A40DA60DA6803218A430A43DA600E4BC2
:1007A000DA680C2313400C2BF9D1124C200000F016
:1007B000E7F8200000F0F4F80749CB6C0E4A1A4025
:1007C0008023DB021343CB6410BDC04600200240EF
:1007D00000700040FFE7FFFF00100240FFE0FFFF56
:1007E000FFFFF7FFFFFFFCFFFFFF02FFFFF8FFFF28
:1007F000FFC7FFFF00127A00FFFFF3FF00B583B0D1
:10080000144B596B012211435963596B0A400192F1
:10081000019A9A6B802149050A439A639B6B0B40AE
:100820000093009B0C490B6A1B021B0AC022120694
:1008300013430B62FFF720FFFFF75CFDFFF716FE87
:10084000FFF7EEFCFFF712FDFFF792FEFFF7C0FE89
:10085000FEE7C0460010024000ED00E0FEE7FEE7C4
:1008600070477047704770477047F0B5002216E038
:10087000C6682B006B435F00FF18FC43A446BE43D1
:100880000F695F433E43C6604C68022C27D0046862
:1008900065462C404D686B432343036001320C686E
:1008A0002300D34037D00123934025001D401C4234
:1008B000F4D04B68013B012BDAD883682C006C43E1
:1008C00066003619B3438E687443234383600C6813
:1008D0004368A343CE68744323434360C8E7FF2DB6
:1008E0000BD8066A1C006C4365432C01641BA643AD
:1008F0004C69654335430562C9E7466A2D0A2C00F9
:100900006C436C4365432C01641BA6434C696543EF
:1009100035434562BBE70020F0BD000010B5836899
:10092000DB0711D4C368094A13404A688C68224324
:10093000CC6822431343C36003699B009B080A6889
:1009400013430361002010BD0120FCE7C73FFFFFF8
:1009500010B58368DB070FD4C368084A1A400B68D8
:100960004C6823438C682343CC68234309690B43B9
:100970001343C360002010BD0120FCE73CC2FEFF12
:1009800010B5FA218900FFF7BFFB0138034B58600F
:1009900000229A6005321A6010BDC04610E000E0E7
:1009A000014B18607047C0460000002010B50300DE
:1009B0000079002850D01A68002A57D058790128A9
:1009C00018D0022820D000280BD001209A79002AC4
:1009D0004BD0022A2CD0032A34D0012A1ED0012069
:1009E00043E023494C6894434C600A681C682243E6
:1009F0000A60EBE71E490868904308604A68186877
:100A000002434A600020E1E71949086802430A608E
:100A10004A68186802434A600020D7E7144AD16840
:100A20001C68A143D1601B6891680B4393601CE074
:100A30000F4A91681C68A14391601B68D1680B4301
:100A4000D36012E00A4A91681C68214391601B68D8
:100A5000D1680B43D36008E0054A11681C68A143C4
:100A60001160196853688B43536010BD0020FCE788
:100A70000004014010B582B00400FA239B000193EA
:100A8000C3685B0623D401235B42C360C368402272
:100A9000110019401A4218D10020019B002B17D0D9
:100AA000012915D00B4B1B68DB0302D5019B013BD1
:100AB0000193E3684022110019401A4200D001213D
:100AC000019B002BE9D10120E7E70121E4E70020A9
:100AD00002B010BD10E000E070B504000D00CA23A4
:100AE0004362773B4362FFF7C5FF012816D0A36836
:100AF000402293432A681343A3602369DB0BDB0383
:100B0000AA68134323616A68236906490B401204EB
:100B10001343236181235B42E3600020FF23636270
:100B200070BDC046FFFF80FF10B5020003685B0682
:100B300028D40368164818400B684C6823438C6817
:100B40002343CC6823430C6923434C6923438C69BA
:100B50002343CC6923430C6A234303431360536844
:100B600004208343C88A0343536080239B01086A9F
:100B7000984201D0002006E04B6A1B041B0C136155
:100B8000002000E00120D36902490B40D36110BD71
:100B90004000FFFFFFF7FFFF704700000D4885464C
:100BA000FFF7FAFF0C480D490D4A002302E0D45824
:100BB000C4500433C4188C42F9D30A4A0A4C0023A7
:100BC00001E013600432A242FBD300F011F8FFF7FA
:100BD00015FEFEE700200020000000200400002099
:100BE000680C00080400002020000020FEE7000040
:100BF00070B500260C4D0D4C641BA410A64209D103
:100C0000002600F021F80A4D0A4C641BA410A642ED
:100C100005D170BDB300EB5898470136EEE7B3003D
:100C2000EB5898470136F2E7600C0008600C0008AA
:100C3000600C0008640C000803008218934200D185
:100C4000704719700133F9E7F8B5C046F8BC08BC25
:100C50009E467047F8B5C046F8BC08BC9E46704733
:040C6000E90000089F
:040C6400C1000008C3
:040C68000000200068
:0400000508000B9D47
:00000001FF
